:020000040000FA
:1000000030060020F50000001D0100001F01000067
:100010002101000023010000250100000000000074
:1000200000000000000000000000000027010000A8
:1000300029010000000000002B0100002D0100003C
:100040002F0100002F0100002F0100002F010000F0
:100050002F0100002F0100002F0100002F010000E0
:100060002F0100002F0100002F0100002F010000D0
:100070002F0100002F0100002F0100002F010000C0
:100080002F0100002F0100002F0100002F010000B0
:100090002F0100002F0100002F0100002F010000A0
:1000A0002F0100002F0100002F0100002F01000090
:1000B0002F0100002F0100002F0100002F01000080
:1000C0002F0100002F0100002F0100002F01000070
:1000D0002F0100002F0100002F0100002F01000060
:1000E0002F0100002F0100002F0100002F01000050
:1000F0002F01000011481249124B99423CBF50F8A1
:10010000042B41F8042BF8D30F494FF000028B4227
:1001100038BF43F8042BFAD30C480047FEE7FEE74C
:10012000FEE7FEE7FEE7FEE7FEE7FEE7FEE7FEE7A7
:1001300007480849084A094B70470000AC01000015
:10014000000000202C00002030060020610100008B
:100150003000002030060020300200203002002055
:1001600011484FF000024FF000034FF00B094FF021
:10017000040A09FB0AF9A9F1040A534514DA1A46DC
:100180001C4604F104044C4505DA05598658B5426D
:10019000F7DA2246F5E7C75850F80280875040F852
:1001A000038003F10403E8E70000002007000000DB
:1001B0000800000002000000090000000500000027
:1001C0000300000006000000010000000400000021
:0801D000090000000C00000012
:040000050000016195
:00000001FF
